{
  "transactions": [
    {
      "hash": "0x932cf4ffdb8dbeb3d430d7438d349a1e1a13d3434062c8760d0e189d909bcd08",
      "transactionType": "CALL",
      "contractName": null,
      "contractAddress": "0x8938260e6418cf3b673c1e1becb61a77dfb1bb2f",
      "function": "play(uint256,uint256,address)",
      "arguments": [
        "111111",
        "200",
        "0xBa0d95449B5E901CFb938fa6b6601281cEf679a4"
      ],
      "transaction": {
        "from": "0xf1577ea03cd6367e60be3995763baf6b8ff78c6b",
        "to": "0x8938260e6418cf3b673c1e1becb61a77dfb1bb2f",
        "gas": "0x617b8",
        "value": "0x38d7ea4c68000",
        "input": "0x7c66ae22000000000000000000000000000000000000000000000000000000000001b20700000000000000000000000000000000000000000000000000000000000000c8000000000000000000000000ba0d95449b5e901cfb938fa6b6601281cef679a4",
        "nonce": "0x18",
        "chainId": "0x66eee"
      },
      "additionalContracts": [],
      "isFixedGasLimit": false
    }
  ],
  "receipts": [
    {
      "status": "0x1",
      "cumulativeGasUsed": "0x48e19",
      "logs": [
        {
          "address": "0xca5a0b661b6464030baa34a1a0f1c54ae5c8200a",
          "topics": [
            "0xddf252ad1be2c89b69c2b068fc378daa952ba7f163c4a11628f55a4df523b3ef",
            "0x000000000000000000000000f1577ea03cd6367e60be3995763baf6b8ff78c6b",
            "0x0000000000000000000000008938260e6418cf3b673c1e1becb61a77dfb1bb2f"
          ],
          "data": "0x000000000000000000000000000000000000000000000000000000000001b207",
          "blockHash": "0x842c40b8de14e169d1b93ccb4a51443a704145ba5dbe07bed1fa17f6cbc0bd08",
          "blockNumber": "0x536f307",
          "transactionHash": "0x932cf4ffdb8dbeb3d430d7438d349a1e1a13d3434062c8760d0e189d909bcd08",
          "transactionIndex": "0x1",
          "logIndex": "0x0",
          "removed": false
        },
        {
          "address": "0x5ce8d5a2bc84beb22a398cca51996f7930313d61",
          "topics": [
            "0xeb0e3652e0f44f417695e6e90f2f42c99b65cd7169074c5a654b16b9748c3a4e",
            "0x1770bdc7eec7771f7ba4ffd640f34260d7f095b79c92d34a5b2551d6f6cfd2be",
            "0x5c6818b03885ba856fd1de1fc1260597155b7b03e46dda6cb236aff5f2c85a20",
            "0x00000000000000000000000029576ab8152a09b9dc634804e4ade73da1f3a3cc"
          ],
          "data": "0x6ab90d49699380af0afc137cba48712d2ff0fd0ef0a327a6005cb9bb903805185107ea5a0b5fdaefcbc3e176c9dbb6f1e798fbacb92323cd5d1264407bf8c28a00000000000000000000000000000000000000000000000000000000000000030000000000000000000000000000000000000000000000000000000000025024000000000000000000000000000000000000000000000000000000000000000100000000000000000000000000000000000000000000000000000000000000c0000000000000000000000000000000000000000000000000000000000000002492fd1338000000000000000000000000000000000000000000000000000000000000000100000000000000000000000000000000000000000000000000000000",
          "blockHash": "0x842c40b8de14e169d1b93ccb4a51443a704145ba5dbe07bed1fa17f6cbc0bd08",
          "blockNumber": "0x536f307",
          "transactionHash": "0x932cf4ffdb8dbeb3d430d7438d349a1e1a13d3434062c8760d0e189d909bcd08",
          "transactionIndex": "0x1",
          "logIndex": "0x1",
          "removed": false
        },
        {
          "address": "0x8938260e6418cf3b673c1e1becb61a77dfb1bb2f",
          "topics": [
            "0xe398ea5641f390705225776f7be55645c034b0b00028e61e2d5090a3aa671ed5"
          ],
          "data": "0x6ab90d49699380af0afc137cba48712d2ff0fd0ef0a327a6005cb9bb90380518000000000000000000000000f1577ea03cd6367e60be3995763baf6b8ff78c6b000000000000000000000000000000000000000000000000000000000001b20700000000000000000000000000000000000000000000000000000000000000c80000000000000000000000000000000000000000000000000000000000688914",
          "blockHash": "0x842c40b8de14e169d1b93ccb4a51443a704145ba5dbe07bed1fa17f6cbc0bd08",
          "blockNumber": "0x536f307",
          "transactionHash": "0x932cf4ffdb8dbeb3d430d7438d349a1e1a13d3434062c8760d0e189d909bcd08",
          "transactionIndex": "0x1",
          "logIndex": "0x2",
          "removed": false
        }
      ],
      "logsBloom": "0x00000000000001000000000000000000800000002000000000020000000000000000008000000000000220000010000002050001000000000000000000000000000002000000000800000808000000000000000000000000000000000000000000000000000000000000000000000000000000000000000000000010000000040008001000000000000000000000000000000002040000000000000000000002000000080000000000000000000000000200000000000000008001000000000000000002000000000000000000000000022010000001000000000000000000000000000000000000000000000000000000000000000000004000000000000000",
      "type": "0x2",
      "transactionHash": "0x932cf4ffdb8dbeb3d430d7438d349a1e1a13d3434062c8760d0e189d909bcd08",
      "transactionIndex": "0x1",
      "blockHash": "0x842c40b8de14e169d1b93ccb4a51443a704145ba5dbe07bed1fa17f6cbc0bd08",
      "blockNumber": "0x536f307",
      "gasUsed": "0x48e19",
      "effectiveGasPrice": "0x5f5e100",
      "from": "0xf1577ea03cd6367e60be3995763baf6b8ff78c6b",
      "to": "0x8938260e6418cf3b673c1e1becb61a77dfb1bb2f",
      "contractAddress": null,
      "gasUsedForL1": "0x4cc2",
      "l1BlockNumber": "0x688914"
    }
  ],
  "libraries": [],
  "pending": [],
  "returns": {},
  "timestamp": 1728571207,
  "chain": 421614,
  "commit": "62d7f54"
}